{
  "_format": "hh3-artifact-1",
  "contractName": "JarFund",
  "sourceName": "contracts/JarFund.sol",
  "abi": [
    {
      "inputs": [
        {
          "internalType": "uint256",
          "name": "_feeBps",
          "type": "uint256"
        }
      ],
      "stateMutability": "nonpayable",
      "type": "constructor"
    },
    {
      "inputs": [],
      "name": "CannotWithdrawYet",
      "type": "error"
    },
    {
      "inputs": [],
      "name": "InvalidDeadline",
      "type": "error"
    },
    {
      "inputs": [],
      "name": "InvalidDonation",
      "type": "error"
    },
    {
      "inputs": [],
      "name": "InvalidPlatformFee",
      "type": "error"
    },
    {
      "inputs": [],
      "name": "InvalidTarget",
      "type": "error"
    },
    {
      "inputs": [],
      "name": "JarNotActive",
      "type": "error"
    },
    {
      "inputs": [],
      "name": "JarNotFound",
      "type": "error"
    },
    {
      "inputs": [],
      "name": "NotCreator",
      "type": "error"
    },
    {
      "inputs": [],
      "name": "NotOwner",
      "type": "error"
    },
    {
      "inputs": [],
      "name": "TransferFailed",
      "type": "error"
    },
    {
      "anonymous": false,
      "inputs": [
        {
          "indexed": true,
          "internalType": "uint256",
          "name": "jarId",
          "type": "uint256"
        },
        {
          "indexed": true,
          "internalType": "address",
          "name": "donor",
          "type": "address"
        },
        {
          "indexed": false,
          "internalType": "uint256",
          "name": "amount",
          "type": "uint256"
        },
        {
          "indexed": false,
          "internalType": "uint256",
          "name": "newTotal",
          "type": "uint256"
        },
        {
          "indexed": false,
          "internalType": "uint256",
          "name": "timestamp",
          "type": "uint256"
        }
      ],
      "name": "DonationReceived",
      "type": "event"
    },
    {
      "anonymous": false,
      "inputs": [
        {
          "indexed": true,
          "internalType": "address",
          "name": "collector",
          "type": "address"
        },
        {
          "indexed": false,
          "internalType": "uint256",
          "name": "amount",
          "type": "uint256"
        }
      ],
      "name": "FeesCollected",
      "type": "event"
    },
    {
      "anonymous": false,
      "inputs": [
        {
          "indexed": true,
          "internalType": "uint256",
          "name": "jarId",
          "type": "uint256"
        },
        {
          "indexed": true,
          "internalType": "address",
          "name": "creator",
          "type": "address"
        },
        {
          "indexed": false,
          "internalType": "uint256",
          "name": "amount",
          "type": "uint256"
        },
        {
          "indexed": false,
          "internalType": "uint256",
          "name": "timestamp",
          "type": "uint256"
        }
      ],
      "name": "FundsWithdrawn",
      "type": "event"
    },
    {
      "anonymous": false,
      "inputs": [
        {
          "indexed": true,
          "internalType": "uint256",
          "name": "jarId",
          "type": "uint256"
        },
        {
          "indexed": true,
          "internalType": "address",
          "name": "creator",
          "type": "address"
        },
        {
          "indexed": false,
          "internalType": "string",
          "name": "title",
          "type": "string"
        },
        {
          "indexed": false,
          "internalType": "uint256",
          "name": "targetAmount",
          "type": "uint256"
        },
        {
          "indexed": false,
          "internalType": "uint256",
          "name": "deadline",
          "type": "uint256"
        }
      ],
      "name": "JarCreated",
      "type": "event"
    },
    {
      "anonymous": false,
      "inputs": [
        {
          "indexed": true,
          "internalType": "uint256",
          "name": "jarId",
          "type": "uint256"
        },
        {
          "indexed": false,
          "internalType": "enum JarFund.JarStatus",
          "name": "oldStatus",
          "type": "uint8"
        },
        {
          "indexed": false,
          "internalType": "enum JarFund.JarStatus",
          "name": "newStatus",
          "type": "uint8"
        }
      ],
      "name": "JarStatusChanged",
      "type": "event"
    },
    {
      "anonymous": false,
      "inputs": [
        {
          "indexed": false,
          "internalType": "uint256",
          "name": "oldBps",
          "type": "uint256"
        },
        {
          "indexed": false,
          "internalType": "uint256",
          "name": "newBps",
          "type": "uint256"
        }
      ],
      "name": "PlatformFeeUpdated",
      "type": "event"
    },
    {
      "stateMutability": "payable",
      "type": "fallback"
    },
    {
      "inputs": [],
      "name": "MAX_DURATION",
      "outputs": [
        {
          "internalType": "uint256",
          "name": "",
          "type": "uint256"
        }
      ],
      "stateMutability": "view",
      "type": "function"
    },
    {
      "inputs": [],
      "name": "MAX_PLATFORM_FEE_BPS",
      "outputs": [
        {
          "internalType": "uint256",
          "name": "",
          "type": "uint256"
        }
      ],
      "stateMutability": "view",
      "type": "function"
    },
    {
      "inputs": [],
      "name": "MIN_DONATION",
      "outputs": [
        {
          "internalType": "uint256",
          "name": "",
          "type": "uint256"
        }
      ],
      "stateMutability": "view",
      "type": "function"
    },
    {
      "inputs": [],
      "name": "MIN_DURATION",
      "outputs": [
        {
          "internalType": "uint256",
          "name": "",
          "type": "uint256"
        }
      ],
      "stateMutability": "view",
      "type": "function"
    },
    {
      "inputs": [],
      "name": "MIN_TARGET",
      "outputs": [
        {
          "internalType": "uint256",
          "name": "",
          "type": "uint256"
        }
      ],
      "stateMutability": "view",
      "type": "function"
    },
    {
      "inputs": [],
      "name": "accumulatedFees",
      "outputs": [
        {
          "internalType": "uint256",
          "name": "",
          "type": "uint256"
        }
      ],
      "stateMutability": "view",
      "type": "function"
    },
    {
      "inputs": [
        {
          "internalType": "uint256",
          "name": "jarId",
          "type": "uint256"
        }
      ],
      "name": "canWithdraw",
      "outputs": [
        {
          "internalType": "bool",
          "name": "",
          "type": "bool"
        }
      ],
      "stateMutability": "view",
      "type": "function"
    },
    {
      "inputs": [],
      "name": "collectFees",
      "outputs": [],
      "stateMutability": "nonpayable",
      "type": "function"
    },
    {
      "inputs": [],
      "name": "contractBalance",
      "outputs": [
        {
          "internalType": "uint256",
          "name": "",
          "type": "uint256"
        }
      ],
      "stateMutability": "view",
      "type": "function"
    },
    {
      "inputs": [
        {
          "internalType": "string",
          "name": "_title",
          "type": "string"
        },
        {
          "internalType": "string",
          "name": "_description",
          "type": "string"
        },
        {
          "internalType": "uint256",
          "name": "_targetAmount",
          "type": "uint256"
        },
        {
          "internalType": "uint256",
          "name": "_deadline",
          "type": "uint256"
        }
      ],
      "name": "createJar",
      "outputs": [
        {
          "internalType": "uint256",
          "name": "jarId",
          "type": "uint256"
        }
      ],
      "stateMutability": "nonpayable",
      "type": "function"
    },
    {
      "inputs": [
        {
          "internalType": "uint256",
          "name": "jarId",
          "type": "uint256"
        }
      ],
      "name": "donate",
      "outputs": [],
      "stateMutability": "payable",
      "type": "function"
    },
    {
      "inputs": [
        {
          "internalType": "uint256",
          "name": "",
          "type": "uint256"
        },
        {
          "internalType": "address",
          "name": "",
          "type": "address"
        }
      ],
      "name": "donations",
      "outputs": [
        {
          "internalType": "uint256",
          "name": "",
          "type": "uint256"
        }
      ],
      "stateMutability": "view",
      "type": "function"
    },
    {
      "inputs": [],
      "name": "getAllJarIds",
      "outputs": [
        {
          "internalType": "uint256[]",
          "name": "",
          "type": "uint256[]"
        }
      ],
      "stateMutability": "view",
      "type": "function"
    },
    {
      "inputs": [
        {
          "internalType": "uint256",
          "name": "jarId",
          "type": "uint256"
        },
        {
          "internalType": "address",
          "name": "donor",
          "type": "address"
        }
      ],
      "name": "getDonorAmount",
      "outputs": [
        {
          "internalType": "uint256",
          "name": "",
          "type": "uint256"
        }
      ],
      "stateMutability": "view",
      "type": "function"
    },
    {
      "inputs": [
        {
          "internalType": "uint256",
          "name": "jarId",
          "type": "uint256"
        }
      ],
      "name": "getJar",
      "outputs": [
        {
          "components": [
            {
              "internalType": "uint256",
              "name": "id",
              "type": "uint256"
            },
            {
              "internalType": "address",
              "name": "creator",
              "type": "address"
            },
            {
              "internalType": "string",
              "name": "title",
              "type": "string"
            },
            {
              "internalType": "string",
              "name": "description",
              "type": "string"
            },
            {
              "internalType": "uint256",
              "name": "targetAmount",
              "type": "uint256"
            },
            {
              "internalType": "uint256",
              "name": "amountRaised",
              "type": "uint256"
            },
            {
              "internalType": "uint256",
              "name": "deadline",
              "type": "uint256"
            },
            {
              "internalType": "enum JarFund.JarStatus",
              "name": "status",
              "type": "uint8"
            },
            {
              "internalType": "uint256",
              "name": "donorCount",
              "type": "uint256"
            },
            {
              "internalType": "uint256",
              "name": "createdAt",
              "type": "uint256"
            }
          ],
          "internalType": "struct JarFund.Jar",
          "name": "",
          "type": "tuple"
        }
      ],
      "stateMutability": "view",
      "type": "function"
    },
    {
      "inputs": [
        {
          "internalType": "uint256",
          "name": "jarId",
          "type": "uint256"
        }
      ],
      "name": "getProgressBps",
      "outputs": [
        {
          "internalType": "uint256",
          "name": "",
          "type": "uint256"
        }
      ],
      "stateMutability": "view",
      "type": "function"
    },
    {
      "inputs": [
        {
          "internalType": "uint256",
          "name": "",
          "type": "uint256"
        },
        {
          "internalType": "address",
          "name": "",
          "type": "address"
        }
      ],
      "name": "hasDonated",
      "outputs": [
        {
          "internalType": "bool",
          "name": "",
          "type": "bool"
        }
      ],
      "stateMutability": "view",
      "type": "function"
    },
    {
      "inputs": [],
      "name": "owner",
      "outputs": [
        {
          "internalType": "address",
          "name": "",
          "type": "address"
        }
      ],
      "stateMutability": "view",
      "type": "function"
    },
    {
      "inputs": [],
      "name": "platformFeeBps",
      "outputs": [
        {
          "internalType": "uint256",
          "name": "",
          "type": "uint256"
        }
      ],
      "stateMutability": "view",
      "type": "function"
    },
    {
      "inputs": [
        {
          "internalType": "uint256",
          "name": "_newFeeBps",
          "type": "uint256"
        }
      ],
      "name": "setPlatformFee",
      "outputs": [],
      "stateMutability": "nonpayable",
      "type": "function"
    },
    {
      "inputs": [],
      "name": "totalJars",
      "outputs": [
        {
          "internalType": "uint256",
          "name": "",
          "type": "uint256"
        }
      ],
      "stateMutability": "view",
      "type": "function"
    },
    {
      "inputs": [
        {
          "internalType": "address",
          "name": "_newOwner",
          "type": "address"
        }
      ],
      "name": "transferOwnership",
      "outputs": [],
      "stateMutability": "nonpayable",
      "type": "function"
    },
    {
      "inputs": [
        {
          "internalType": "uint256",
          "name": "jarId",
          "type": "uint256"
        }
      ],
      "name": "withdraw",
      "outputs": [],
      "stateMutability": "nonpayable",
      "type": "function"
    },
    {
      "stateMutability": "payable",
      "type": "receive"
    }
  ],
  "bytecode": "0x608060405234801561000f575f5ffd5b5060405161294e38038061294e833981810160405281019061003191906100f1565b6103e881111561006d576040517fc1a205b800000000000000000000000000000000000000000000000000000000815260040160405180910390fd5b3360035f6101000a81548173ffffffffffffffffffffffffffffffffffffffff021916908373ffffffffffffffffffffffffffffffffffffffff160217905550806001819055505061011c565b5f5ffd5b5f819050919050565b6100d0816100be565b81146100da575f5ffd5b50565b5f815190506100eb816100c7565b92915050565b5f60208284031215610106576101056100ba565b5b5f610113848285016100dd565b91505092915050565b612825806101295f395ff3fe608060405260043610610142575f3560e01c80638d01513c116100b5578063c87965721161006e578063c879657214610465578063db45810e1461047b578063ee1554a3146104a5578063f14faf6f146104e1578063f2fde38b146104fd578063fbe85f061461052557610143565b80638d01513c146103575780638da5cb5b14610381578063ae3c37a7146103ab578063b1724b46146103e7578063b640a95d14610411578063b6a6d1771461043b57610143565b8063587f5ed711610107578063587f5ed71461023757806365d780fe146102615780636a7ba9071461029d57806373405191146102d957806381d040d9146103035780638b7afe2e1461032d57610143565b806211e2a91461014557806312e8e2c3146101815780631e155398146101a957806322dcd13e146101e55780632e1a7d4d1461020f57610143565b5b005b348015610150575f5ffd5b5061016b60048036038101906101669190611cba565b610561565b6040516101789190611ef4565b60405180910390f35b34801561018c575f5ffd5b506101a760048036038101906101a29190611cba565b6107c3565b005b3480156101b4575f5ffd5b506101cf60048036038101906101ca9190611f3e565b6108cf565b6040516101dc9190611f96565b60405180910390f35b3480156101f0575f5ffd5b506101f96108f9565b6040516102069190611fbe565b60405180910390f35b34801561021a575f5ffd5b5061023560048036038101906102309190611cba565b6108ff565b005b348015610242575f5ffd5b5061024b610be0565b6040516102589190611fbe565b60405180910390f35b34801561026c575f5ffd5b5061028760048036038101906102829190611f3e565b610be6565b6040516102949190611fbe565b60405180910390f35b3480156102a8575f5ffd5b506102c360048036038101906102be9190611cba565b610c88565b6040516102d09190611fbe565b60405180910390f35b3480156102e4575f5ffd5b506102ed610f0d565b6040516102fa919061207f565b60405180910390f35b34801561030e575f5ffd5b50610317610fab565b6040516103249190611fbe565b60405180910390f35b348015610338575f5ffd5b50610341610fb0565b60405161034e9190611fbe565b60405180910390f35b348015610362575f5ffd5b5061036b610fb7565b6040516103789190611fbe565b60405180910390f35b34801561038c575f5ffd5b50610395610fbd565b6040516103a291906120ae565b60405180910390f35b3480156103b6575f5ffd5b506103d160048036038101906103cc9190612128565b610fe2565b6040516103de9190611fbe565b60405180910390f35b3480156103f2575f5ffd5b506103fb61130d565b6040516104089190611fbe565b60405180910390f35b34801561041c575f5ffd5b50610425611315565b6040516104329190611fbe565b60405180910390f35b348015610446575f5ffd5b5061044f611320565b60405161045c9190611fbe565b60405180910390f35b348015610470575f5ffd5b50610479611326565b005b348015610486575f5ffd5b5061048f6114aa565b60405161049c9190611fbe565b60405180910390f35b3480156104b0575f5ffd5b506104cb60048036038101906104c69190611f3e565b6114b5565b6040516104d89190611fbe565b60405180910390f35b6104fb60048036038101906104f69190611cba565b6114d5565b005b348015610508575f5ffd5b50610523600480360381019061051e91906121cb565b611850565b005b348015610530575f5ffd5b5061054b60048036038101906105469190611cba565b61197e565b6040516105589190611f96565b60405180910390f35b610569611c0c565b5f60045f8481526020019081526020015f205f0154036105b5576040517fb920690500000000000000000000000000000000000000000000000000000000815260040160405180910390fd5b60045f8381526020019081526020015f20604051806101400160405290815f8201548152602001600182015f9054906101000a900473ffffffffffffffffffffffffffffffffffffffff1673ffffffffffffffffffffffffffffffffffffffff1673ffffffffffffffffffffffffffffffffffffffff16815260200160028201805461064090612223565b80601f016020809104026020016040519081016040528092919081815260200182805461066c90612223565b80156106b75780601f1061068e576101008083540402835291602001916106b7565b820191905f5260205f20905b81548152906001019060200180831161069a57829003601f168201915b505050505081526020016003820180546106d090612223565b80601f01602080910402602001604051908101604052809291908181526020018280546106fc90612223565b80156107475780601f1061071e57610100808354040283529160200191610747565b820191905f5260205f20905b81548152906001019060200180831161072a57829003601f168201915b50505050508152602001600482015481526020016005820154815260200160068201548152602001600782015f9054906101000a900460ff16600381111561079257610791611da3565b5b60038111156107a4576107a3611da3565b5b8152602001600882015481526020016009820154815250509050919050565b60035f9054906101000a900473ffffffffffffffffffffffffffffffffffffffff1673ffffffffffffffffffffffffffffffffffffffff163373ffffffffffffffffffffffffffffffffffffffff1614610849576040517f30cd747100000000000000000000000000000000000000000000000000000000815260040160405180910390fd5b6103e8811115610885576040517fc1a205b800000000000000000000000000000000000000000000000000000000815260040160405180910390fd5b5f6001549050816001819055507fd347e206f25a89b917fc9482f1a2d294d749baa4dc9bde7fb495ee11fe49164381836040516108c3929190612253565b60405180910390a15050565b6006602052815f5260405f20602052805f5260405f205f915091509054906101000a900460ff1681565b60015481565b5f60045f8381526020019081526020015f2090505f815f01540361094f576040517fb920690500000000000000000000000000000000000000000000000000000000815260040160405180910390fd5b3373ffffffffffffffffffffffffffffffffffffffff16816001015f9054906101000a900473ffffffffffffffffffffffffffffffffffffffff1673ffffffffffffffffffffffffffffffffffffffff16146109d7576040517f93687c0b00000000000000000000000000000000000000000000000000000000815260040160405180910390fd5b6109e08261197e565b610a16576040517f271c87d900000000000000000000000000000000000000000000000000000000815260040160405180910390fd5b5f816005015490505f61271060015483610a3091906122a7565b610a3a9190612315565b90505f8183610a499190612345565b90505f84600501819055505f846007015f9054906101000a900460ff1690506003856007015f6101000a81548160ff02191690836003811115610a8f57610a8e611da3565b5b02179055508260025f828254610aa59190612378565b925050819055505f3373ffffffffffffffffffffffffffffffffffffffff1683604051610ad1906123d8565b5f6040518083038185875af1925050503d805f8114610b0b576040519150601f19603f3d011682016040523d82523d5f602084013e610b10565b606091505b5050905080610b4b576040517f90b8ec1800000000000000000000000000000000000000000000000000000000815260040160405180910390fd5b867ff4c5547c3f08e2c63c0a8f0880e62bc69b3def2ca2bbd1fb905e849ecb902b66836003604051610b7e9291906123fb565b60405180910390a23373ffffffffffffffffffffffffffffffffffffffff16877f3dbb1a26f29aef1264c12ca1285deb60cca5666d8b17100c7ea1602c0a4014f68542604051610bcf929190612253565b60405180910390a350505050505050565b60025481565b5f5f60045f8581526020019081526020015f205f015403610c33576040517fb920690500000000000000000000000000000000000000000000000000000000815260040160405180910390fd5b60055f8481526020019081526020015f205f8373ffffffffffffffffffffffffffffffffffffffff1673ffffffffffffffffffffffffffffffffffffffff1681526020019081526020015f2054905092915050565b5f5f60045f8481526020019081526020015f20604051806101400160405290815f8201548152602001600182015f9054906101000a900473ffffffffffffffffffffffffffffffffffffffff1673ffffffffffffffffffffffffffffffffffffffff1673ffffffffffffffffffffffffffffffffffffffff168152602001600282018054610d1590612223565b80601f0160208091040260200160405190810160405280929190818152602001828054610d4190612223565b8015610d8c5780601f10610d6357610100808354040283529160200191610d8c565b820191905f5260205f20905b815481529060010190602001808311610d6f57829003601f168201915b50505050508152602001600382018054610da590612223565b80601f0160208091040260200160405190810160405280929190818152602001828054610dd190612223565b8015610e1c5780601f10610df357610100808354040283529160200191610e1c565b820191905f5260205f20905b815481529060010190602001808311610dff57829003601f168201915b50505050508152602001600482015481526020016005820154815260200160068201548152602001600782015f9054906101000a900460ff166003811115610e6757610e66611da3565b5b6003811115610e7957610e78611da3565b5b81526020016008820154815260200160098201548152505090505f815f015103610ecf576040517fb920690500000000000000000000000000000000000000000000000000000000815260040160405180910390fd5b5f816080015103610ee3575f915050610f08565b80608001516127108260a00151610efa91906122a7565b610f049190612315565b9150505b919050565b60605f5f5467ffffffffffffffff811115610f2b57610f2a612422565b5b604051908082528060200260200182016040528015610f595781602001602082028036833780820191505090505b5090505f5f90505b5f54811015610fa357600181610f779190612378565b828281518110610f8a57610f8961244f565b5b6020026020010181815250508080600101915050610f61565b508091505090565b5f5481565b5f47905090565b6103e881565b60035f9054906101000a900473ffffffffffffffffffffffffffffffffffffffff1681565b5f662386f26fc10000831015611024576040517f82d5d76a00000000000000000000000000000000000000000000000000000000815260040160405180910390fd5b610e10426110329190612378565b82101561106b576040517f769d11e400000000000000000000000000000000000000000000000000000000815260040160405180910390fd5b6301e133804261107b9190612378565b8211156110b4576040517f769d11e400000000000000000000000000000000000000000000000000000000815260040160405180910390fd5b5f5f81546110c19061247c565b91905081905590506040518061014001604052808281526020013373ffffffffffffffffffffffffffffffffffffffff16815260200188888080601f0160208091040260200160405190810160405280939291908181526020018383808284375f81840152601f19601f82011690508083019250505050505050815260200186868080601f0160208091040260200160405190810160405280939291908181526020018383808284375f81840152601f19601f8201169050808301925050505050505081526020018481526020015f81526020018381526020015f60038111156111ae576111ad611da3565b5b81526020015f81526020014281525060045f8381526020019081526020015f205f820151815f01556020820151816001015f6101000a81548173ffffffffffffffffffffffffffffffffffffffff021916908373ffffffffffffffffffffffffffffffffffffffff16021790555060408201518160020190816112319190612663565b5060608201518160030190816112479190612663565b506080820151816004015560a0820151816005015560c0820151816006015560e0820151816007015f6101000a81548160ff021916908360038111156112905761128f611da3565b5b0217905550610100820151816008015561012082015181600901559050503373ffffffffffffffffffffffffffffffffffffffff16817fca0f912fc642e60f0efbf79146cf061fb3d691a8f99fa342d94c70c6527cef9c898987876040516112fb949392919061277c565b60405180910390a39695505050505050565b6301e1338081565b662386f26fc1000081565b610e1081565b60035f9054906101000a900473ffffffffffffffffffffffffffffffffffffffff1673ffffffffffffffffffffffffffffffffffffffff163373ffffffffffffffffffffffffffffffffffffffff16146113ac576040517f30cd747100000000000000000000000000000000000000000000000000000000815260040160405180910390fd5b5f60025490505f6002819055505f3373ffffffffffffffffffffffffffffffffffffffff16826040516113de906123d8565b5f6040518083038185875af1925050503d805f8114611418576040519150601f19603f3d011682016040523d82523d5f602084013e61141d565b606091505b5050905080611458576040517f90b8ec1800000000000000000000000000000000000000000000000000000000815260040160405180910390fd5b3373ffffffffffffffffffffffffffffffffffffffff167f9dc46f23cfb5ddcad0ae7ea2be38d47fec07bb9382ec7e564efc69e036dd66ce8360405161149e9190611fbe565b60405180910390a25050565b66038d7ea4c6800081565b6005602052815f5260405f20602052805f5260405f205f91509150505481565b5f60045f8381526020019081526020015f2090505f815f015403611525576040517fb920690500000000000000000000000000000000000000000000000000000000815260040160405180910390fd5b5f600381111561153857611537611da3565b5b816007015f9054906101000a900460ff16600381111561155b5761155a611da3565b5b14611592576040517fa4d0057100000000000000000000000000000000000000000000000000000000815260040160405180910390fd5b806006015442106115cf576040517fa4d0057100000000000000000000000000000000000000000000000000000000815260040160405180910390fd5b66038d7ea4c68000341015611610576040517fed0a901a00000000000000000000000000000000000000000000000000000000815260040160405180910390fd5b60065f8381526020019081526020015f205f3373ffffffffffffffffffffffffffffffffffffffff1673ffffffffffffffffffffffffffffffffffffffff1681526020019081526020015f205f9054906101000a900460ff166116ed57600160065f8481526020019081526020015f205f3373ffffffffffffffffffffffffffffffffffffffff1673ffffffffffffffffffffffffffffffffffffffff1681526020019081526020015f205f6101000a81548160ff0219169083151502179055506001816008015f8282546116e59190612378565b925050819055505b3460055f8481526020019081526020015f205f3373ffffffffffffffffffffffffffffffffffffffff1673ffffffffffffffffffffffffffffffffffffffff1681526020019081526020015f205f8282546117489190612378565b9250508190555034816005015f8282546117629190612378565b9250508190555080600401548160050154106117f5575f816007015f9054906101000a900460ff1690506001826007015f6101000a81548160ff021916908360038111156117b3576117b2611da3565b5b0217905550827ff4c5547c3f08e2c63c0a8f0880e62bc69b3def2ca2bbd1fb905e849ecb902b668260016040516117eb9291906123fb565b60405180910390a2505b3373ffffffffffffffffffffffffffffffffffffffff16827f0cf8c4854123959c570d98dc2c9bc5044a97e1a2e26f11987e922dc34831744434846005015442604051611844939291906127ba565b60405180910390a35050565b60035f9054906101000a900473ffffffffffffffffffffffffffffffffffffffff1673ffffffffffffffffffffffffffffffffffffffff163373ffffffffffffffffffffffffffffffffffffffff16146118d6576040517f30cd747100000000000000000000000000000000000000000000000000000000815260040160405180910390fd5b5f73ffffffffffffffffffffffffffffffffffffffff168173ffffffffffffffffffffffffffffffffffffffff160361193b576040517f90b8ec1800000000000000000000000000000000000000000000000000000000815260040160405180910390fd5b8060035f6101000a81548173ffffffffffffffffffffffffffffffffffffffff021916908373ffffffffffffffffffffffffffffffffffffffff16021790555050565b5f5f60045f8481526020019081526020015f20604051806101400160405290815f8201548152602001600182015f9054906101000a900473ffffffffffffffffffffffffffffffffffffffff1673ffffffffffffffffffffffffffffffffffffffff1673ffffffffffffffffffffffffffffffffffffffff168152602001600282018054611a0b90612223565b80601f0160208091040260200160405190810160405280929190818152602001828054611a3790612223565b8015611a825780601f10611a5957610100808354040283529160200191611a82565b820191905f5260205f20905b815481529060010190602001808311611a6557829003601f168201915b50505050508152602001600382018054611a9b90612223565b80601f0160208091040260200160405190810160405280929190818152602001828054611ac790612223565b8015611b125780601f10611ae957610100808354040283529160200191611b12565b820191905f5260205f20905b815481529060010190602001808311611af557829003601f168201915b50505050508152602001600482015481526020016005820154815260200160068201548152602001600782015f9054906101000a900460ff166003811115611b5d57611b5c611da3565b5b6003811115611b6f57611b6e611da3565b5b81526020016008820154815260200160098201548152505090505f815f015103611b9c575f915050611c07565b600380811115611baf57611bae611da3565b5b8160e001516003811115611bc657611bc5611da3565b5b03611bd4575f915050611c07565b5f8160a0015103611be8575f915050611c07565b80608001518160a00151101580611c0357508060c001514210155b9150505b919050565b6040518061014001604052805f81526020015f73ffffffffffffffffffffffffffffffffffffffff16815260200160608152602001606081526020015f81526020015f81526020015f81526020015f6003811115611c6d57611c6c611da3565b5b81526020015f81526020015f81525090565b5f5ffd5b5f5ffd5b5f819050919050565b611c9981611c87565b8114611ca3575f5ffd5b50565b5f81359050611cb481611c90565b92915050565b5f60208284031215611ccf57611cce611c7f565b5b5f611cdc84828501611ca6565b91505092915050565b611cee81611c87565b82525050565b5f73ffffffffffffffffffffffffffffffffffffffff82169050919050565b5f611d1d82611cf4565b9050919050565b611d2d81611d13565b82525050565b5f81519050919050565b5f82825260208201905092915050565b8281835e5f83830152505050565b5f601f19601f8301169050919050565b5f611d7582611d33565b611d7f8185611d3d565b9350611d8f818560208601611d4d565b611d9881611d5b565b840191505092915050565b7f4e487b71000000000000000000000000000000000000000000000000000000005f52602160045260245ffd5b60048110611de157611de0611da3565b5b50565b5f819050611df182611dd0565b919050565b5f611e0082611de4565b9050919050565b611e1081611df6565b82525050565b5f61014083015f830151611e2c5f860182611ce5565b506020830151611e3f6020860182611d24565b5060408301518482036040860152611e578282611d6b565b91505060608301518482036060860152611e718282611d6b565b9150506080830151611e866080860182611ce5565b5060a0830151611e9960a0860182611ce5565b5060c0830151611eac60c0860182611ce5565b5060e0830151611ebf60e0860182611e07565b50610100830151611ed4610100860182611ce5565b50610120830151611ee9610120860182611ce5565b508091505092915050565b5f6020820190508181035f830152611f0c8184611e16565b905092915050565b611f1d81611d13565b8114611f27575f5ffd5b50565b5f81359050611f3881611f14565b92915050565b5f5f60408385031215611f5457611f53611c7f565b5b5f611f6185828601611ca6565b9250506020611f7285828601611f2a565b9150509250929050565b5f8115159050919050565b611f9081611f7c565b82525050565b5f602082019050611fa95f830184611f87565b92915050565b611fb881611c87565b82525050565b5f602082019050611fd15f830184611faf565b92915050565b5f81519050919050565b5f82825260208201905092915050565b5f819050602082019050919050565b5f61200b8383611ce5565b60208301905092915050565b5f602082019050919050565b5f61202d82611fd7565b6120378185611fe1565b935061204283611ff1565b805f5b838110156120725781516120598882612000565b975061206483612017565b925050600181019050612045565b5085935050505092915050565b5f6020820190508181035f8301526120978184612023565b905092915050565b6120a881611d13565b82525050565b5f6020820190506120c15f83018461209f565b92915050565b5f5ffd5b5f5ffd5b5f5ffd5b5f5f83601f8401126120e8576120e76120c7565b5b8235905067ffffffffffffffff811115612105576121046120cb565b5b602083019150836001820283011115612121576121206120cf565b5b9250929050565b5f5f5f5f5f5f6080878903121561214257612141611c7f565b5b5f87013567ffffffffffffffff81111561215f5761215e611c83565b5b61216b89828a016120d3565b9650965050602087013567ffffffffffffffff81111561218e5761218d611c83565b5b61219a89828a016120d3565b945094505060406121ad89828a01611ca6565b92505060606121be89828a01611ca6565b9150509295509295509295565b5f602082840312156121e0576121df611c7f565b5b5f6121ed84828501611f2a565b91505092915050565b7f4e487b71000000000000000000000000000000000000000000000000000000005f52602260045260245ffd5b5f600282049050600182168061223a57607f821691505b60208210810361224d5761224c6121f6565b5b50919050565b5f6040820190506122665f830185611faf565b6122736020830184611faf565b9392505050565b7f4e487b71000000000000000000000000000000000000000000000000000000005f52601160045260245ffd5b5f6122b182611c87565b91506122bc83611c87565b92508282026122ca81611c87565b915082820484148315176122e1576122e061227a565b5b5092915050565b7f4e487b71000000000000000000000000000000000000000000000000000000005f52601260045260245ffd5b5f61231f82611c87565b915061232a83611c87565b92508261233a576123396122e8565b5b828204905092915050565b5f61234f82611c87565b915061235a83611c87565b92508282039050818111156123725761237161227a565b5b92915050565b5f61238282611c87565b915061238d83611c87565b92508282019050808211156123a5576123a461227a565b5b92915050565b5f81905092915050565b50565b5f6123c35f836123ab565b91506123ce826123b5565b5f82019050919050565b5f6123e2826123b8565b9150819050919050565b6123f581611df6565b82525050565b5f60408201905061240e5f8301856123ec565b61241b60208301846123ec565b9392505050565b7f4e487b71000000000000000000000000000000000000000000000000000000005f52604160045260245ffd5b7f4e487b71000000000000000000000000000000000000000000000000000000005f52603260045260245ffd5b5f61248682611c87565b91507fffffffffffffffffffffffffffffffffffffffffffffffffffffffffffffffff82036124b8576124b761227a565b5b600182019050919050565b5f819050815f5260205f209050919050565b5f6020601f8301049050919050565b5f82821b905092915050565b5f6008830261251f7fffffffffffffffffffffffffffffffffffffffffffffffffffffffffffffffff826124e4565b61252986836124e4565b95508019841693508086168417925050509392505050565b5f819050919050565b5f61256461255f61255a84611c87565b612541565b611c87565b9050919050565b5f819050919050565b61257d8361254a565b6125916125898261256b565b8484546124f0565b825550505050565b5f5f905090565b6125a8612599565b6125b3818484612574565b505050565b5b818110156125d6576125cb5f826125a0565b6001810190506125b9565b5050565b601f82111561261b576125ec816124c3565b6125f5846124d5565b81016020851015612604578190505b612618612610856124d5565b8301826125b8565b50505b505050565b5f82821c905092915050565b5f61263b5f1984600802612620565b1980831691505092915050565b5f612653838361262c565b9150826002028217905092915050565b61266c82611d33565b67ffffffffffffffff81111561268557612684612422565b5b61268f8254612223565b61269a8282856125da565b5f60209050601f8311600181146126cb575f84156126b9578287015190505b6126c38582612648565b86555061272a565b601f1984166126d9866124c3565b5f5b82811015612700578489015182556001820191506020850194506020810190506126db565b8683101561271d5784890151612719601f89168261262c565b8355505b6001600288020188555050505b505050505050565b5f82825260208201905092915050565b828183375f83830152505050565b5f61275b8385612732565b9350612768838584612742565b61277183611d5b565b840190509392505050565b5f6060820190508181035f830152612795818688612750565b90506127a46020830185611faf565b6127b16040830184611faf565b95945050505050565b5f6060820190506127cd5f830186611faf565b6127da6020830185611faf565b6127e76040830184611faf565b94935050505056fea26469706673582212203d92806eee15d90a0dc572294a6af42654f5c4d04872a0a14c6bef19bb7358f164736f6c634300081c0033",
  "linkReferences": {},
  "deployedLinkReferences": {},
  "immutableReferences": {},
  "inputSourceName": "project/contracts/JarFund.sol",
  "buildInfoId": "solc-0_8_28-ed1266dfad2100a361521752122ee05b128188ba"
}